:020000040800F2
:10000000C005002035010008E70F0008C50E0008F4
:10001000E50F0008A10100087513000800000000AA
:100020000000000000000000000000000B100008AD
:10003000DB01000800000000091000080D10000896
:100040004F0100084F0100084F0100084F01000850
:100050004F0100084F0100084F0100084F01000840
:100060004F0100084F0100084F010008A5010008DA
:100070004F0100084F0100084F0100084F01000820
:100080004F0100084F0100084F0100080000000068
:100090000000000000000000000000004F01000808
:1000A0004F0100084F0100084F0100084F010008F0
:1000B0004F0100084F0100084F0100084F010008E0
:1000C0004F0100084F0100084F0100084F010008D0
:1000D0004F0100084F0100084F0100084F010008C0
:1000E0004F0100084F0100084F0100080000000008
:1000F0000000000000000000000000000000000000
:1001000000000000000000000000000000000000EF
:1001100000000000000000004F0100084F0100082F
:10012000DFF80CD000F02AF80048004795130008CB
:10013000C00500200648804706480047FEE7FEE766
:10014000FEE7FEE7FEE7FEE7FEE7FEE7FEE7FEE787
:100150005910000821010008D2B201E000F8012B7B
:10016000491EFBD270470022F6E710B513460A4637
:1001700004461946FFF7F0FF204610BD064C074D18
:1001800006E0E06840F0010394E807009847103467
:10019000AC42F6D3FFF7C8FF4C1400086C140008FB
:1001A000FEE70000014800F01BB8000078010020C5
:1001B00030B590F840500124AC40C56B6C600468C9
:1001C00063604368102B036803D099600068C260C5
:1001D00030BD9A600068C16030BD70477047000054
:1001E0002DE9F05FC16B0C6801680B68D0F840C066
:1001F000042202FA0CF2494DDFF824A1494E4A4F7D
:10020000DFF828B1DFF828E122422CD05A072AD59E
:100210000A68920603D40A6822F004020A600168A0
:10022000A94201D1042219E0514501D1402215E033
:10023000B14202D14FF4806210E0B94202D14FF4D2
:1002400080420BE0594502D14FF4802206E071450F
:1002500002D14FF4800201E04FF080622F4908394B
:100260004A60C16A3BE04FF0020808FA0CF818EA4D
:10027000040F4FF000094FF0010235D05FEA837898
:1002800032D50B689B0605D40B6823F00A030B607C
:1002900080F821200168A94201D1022219E05145CC
:1002A00001D1202215E0B14202D14FF4007210E0DA
:1002B000B94202D14FF400520BE0594502D14FF43C
:1002C000003206E0714502D14FF4001201E04FF018
:1002D0000072124908394A6080F82090816A00292A
:1002E0001AD0BDE8F05F0847082505FA0CF525424D
:1002F00012D01B0710D50B6823F00E030B6090F88B
:100300004010C36B02FA01F15960826380F821202A
:1003100080F82090016BE2E7BDE8F09F0800024002
:100320001C000240300002404400024058000240DD
:100330006C00024030B528B308C813491422194490
:10034000B1FBF2F18900C163104981630221417759
:100350001A6843F6F0718A43D0E900142143D0E9CA
:1003600002452C43214304692143446921438469A4
:100370002143114319600021416301224277017733
:10038000084630BD012030BDF8FFFDBF000002402F
:1003900070B5044690F82000002501280CD00120FB
:1003A00084F8200094F821600020012E06D084F803
:1003B00020000225284670BD022070BD022684F868
:1003C0002160A0632068066826F0010606602046CA
:1003D000FFF7EEFEE06A00282068016802D041F0D5
:1003E0000E0106E021F0040101602068016841F07F
:1003F0000A0101602068016841F001010160D9E74C
:100400002DE9F84FDFF890A100220AF1040B144601
:1004100001274FF00F090BF1040E00BF0B6807FA1C
:1004200004F52B40AB4274D1DFF870C14E68A6EBE7
:100430000C0866452BD00DDC032E34D005DC36B31A
:10044000012E19D0022E2FD11BE0112E16D0122E04
:100450002AD119E0B8F5881F19D006DCB8F5803F1D
:1004600015D0B8F5801F1FD111E0B8F5001F0ED0D0
:10047000B8F5041F18D10AE0CA6815E0CA68121D51
:1004800012E0CA6808320FE0CA680C320CE08A68D1
:100490002AB1012A4FF0080203D0456104E004228A
:1004A00002E0056100E00022FF2B01D8064601E0D2
:1004B00000F104064FEA840501D9A5F12005D6F81C
:1004C00000C009FA05F82CEA080C02FA05F54CEA16
:1004D000050CC6F800C04D68ED0057D5304DAE692B
:1004E00046F00106AE61AD6924F0030605F0010592
:1004F00000952C4D06EB050CDCF80850A6074FEADA
:10050000167809FA08F6B543274EB04202D1002604
:1005100010E03BE0254EB04201D101260AE0244E16
:10052000B04201D1022605E0224EB04201D103269D
:1005300000E0042606FA08F62E43CCF808604D6861
:10054000DAF80060ED03554601D51E4300E09E43F6
:100550002E604D68DBF80060AD035D4601D51E439B
:1005600000E09E432E604D68DEF80060ED027546A7
:1005700001D51E4300E09E432E604D68AD020E4D36
:100580002E6801D51E4300E09E432E60641C102C93
:10059000FFF444AFBDE8F88F0004014000001110E3
:1005A000001002400000014000080140000C014022
:1005B00000100140001401400C0401400AB1016127
:1005C00070470904FBE7000001488068704700009D
:1005D0000000002002488168027811448160704761
:1005E0000000002010B5032000F072F8002000F099
:1005F00005F800F023F8002010BD000070B50D4D87
:1006000004464FF47A712878B1FBF0F00A49096882
:10061000B1FBF0F000F0B8FA48B9102C07D2002274
:100620002146501E00F034F800206C6070BD01209F
:1006300070BD0000000000200C0000200C4808B530
:10064000816941F001018161816901F0010100913D
:10065000C16941F08051C161C06900F080500090D3
:100660000448416821F0E06141F00071416008BD3B
:10067000001002400000014000F01F0201219140E3
:100680004009800000F1E020C0F800117047000030
:10069000F0B40E4B1B680C46C3F30223C3F10705ED
:1006A000042D00D90425191D072901D2002300E0DB
:1006B000DB1E012606FA05F1491E214099409E40A5
:1006C000761E16403143F0BC00F08EBC0CED00E00D
:1006D000064900F0070208684FF6FF03184040EA99
:1006E0000220034A10430860704700000CED00E050
:1006F0000000FA052DE9F041054600683F4C8107EE
:1007000012D5400703D5606840F4E0606060287847
:10071000000703D5606840F4605060606068A968B5
:1007200020F0F000084360602878C00743D0686874
:10073000012804D02168022804D0890703E0216839
:10074000890300E08901002902DB0120BDE8F08176
:10075000616821F0030101436160FFF735FF07463F
:10076000686841F28836012807D0022811D01EE0BF
:10077000FFF72AFFC01BB04217D86068C0F38100A2
:100780000128F5D117E000BFFFF71EFFC01BB042E4
:100790000BD86068C0F381000228F5D10BE000BFE0
:1007A000FFF712FFC01BB04201D90320CEE76068FB
:1007B00010F00C0FF4D12878400705D56068E9687F
:1007C00020F4E060084360602878000706D5606880
:1007D000296920F4605040EAC100606000F014F81C
:1007E0006168074AC1F30311515CC84005490860BC
:1007F0000020FFF703FF0020A8E7000000100240E0
:100800003C1400080C00002013A188B00FC98DE82B
:100810000F0015A10DF1100C0FC98CE80F00164A3E
:100820005168164801F00C03042B10D0082B0ED190
:10083000C1F38343C9031DF803000AD5D16A04AA92
:1008400001F00F01515C0D4A5043B0FBF1F008B0CC
:1008500070470B494843FAE70203040506070809F5
:100860000A0B0C0D0E0F10100102030405060708F9
:10087000090A0B0C0D0E0F100010024000127A0036
:1008800000093D002DE9F84F04460078B94DC00736
:1008900048D06868C0F38100012807D06868C0F3B9
:1008A0008100022809D16868C00306D52868800342
:1008B00038D5606800286FD034E06068B0F5803FBC
:1008C0000BD010B1B0F5A02F11D0286820F48030E3
:1008D0002860286820F4802002E0286840F48030F6
:1008E0002860606888B1FFF76FFE064609E0286857
:1008F00040F480202860F0E7FFF766FE801B642844
:1009000075D828688003F7D50CE0FFF75DFE064632
:1009100005E000BFFFF758FE801B6428F0D8286868
:100920008003F7D42078944E80074FF001094FF0F0
:1009300000083BD5686810F00C0F07D06868C0F35A
:100940008100022809D16868C00306D4286880079E
:1009500014D5206901281FD110E02069B0B1C6F874
:100960000090FFF731FE074605E000BFFFF72CFEC1
:10097000C01B0228C4D828688007F7D52868616999
:1009800020F0F80040EAC10028600FE0C6F80080BF
:10099000FFF71AFE074606E0E9E000BFFFF714FE86
:1009A000C01B022823D828688007F7D420780007C6
:1009B0002CD57248A169D9B1C0F80090FFF704FEA8
:1009C000074604E0FFF700FEC01B02280FD8686A44
:1009D0008007F7D56A484FF4FA510068B0FBF1F090
:1009E000009000BF0098411E0091FAD20EE080E016
:1009F000C0F80080FFF7E8FD074604E0FFF7E4FDDC
:100A0000C01B022875D8686A8007F7D42078400791
:100A100060D5E8690027C00008D4E86940F080503C
:100A2000E861E869012700F08050009055480168AE
:100A3000C90513D40168834641F480710160FFF752
:100A4000C3FD824606E000BFFFF7BEFDA0EB0A0033
:100A500064284ED8DBF80000C005F5D5E068012811
:100A60000AD008B1052813D0286A20F001002862B6
:100A7000286A20F0040002E0286A40F001002862A1
:100A8000E06841F2883B98B1FFF79EFD82460BE09B
:100A9000286A40F004002862EEE700BFFFF794FDEB
:100AA000A0EB0A0159455AD8286A8007F6D50CE010
:100AB000FFF78AFD824605E0FFF786FDA0EB0A01FD
:100AC00059454CD8286A8007F6D41FB1E86920F050
:100AD0008050E861E06988B36968C1F38101022947
:100AE00045D00228C6F8608004D0FFF76DFD0446AB
:100AF00038E034E0FFF768FD074604E0FFF764FDE7
:100B0000C01B02282BD828688001F7D4206AB0F5D2
:100B1000803F05D1E86AA16820F00F000843E86231
:100B2000D4E908010843696821F474110843686036
:100B3000C6F86090FFF748FD044606E015E000BFE8
:100B4000FFF742FD001B022809D828688001F7D56D
:100B50000BE000BFFFF738FD001B022802D903207D
:100B6000BDE8F88F28688001F4D40020F8E7012060
:100B7000F6E70000001002400000424280044242BA
:100B80000C0000200070004010B5401EB0F1807FC6
:100B900001D3012010BD4FF0E02460610F216017E8
:100BA00000F022FA0020A06107202061002010BD83
:100BB00030B590F83C20012A20D0012280F83C205A
:100BC000022380F83D3003685C6824F070045C60A8
:100BD00003685C680D682C435C6003689C6824F0C3
:100BE00080049C6003689C6849680C439C6080F8A2
:100BF0003D20002180F83C10084630BD022030BD69
:100C00007047000000B585B000210091019102916C
:100C1000039100680B49884212D10B48816941F069
:100C2000080181618069694600F008000490402055
:100C3000009002200190032003900448FFF7E0FB9E
:100C400005B000BD0008004000100240000C01404B
:100C500070B5044690F83C000D4601280DD00126E1
:100C600084F83C60022084F83D0042B1042A18D088
:100C7000082A2AD00C2A4DD139E0022070BD206804
:100C800000F08EFA2068816941F0080181612068D6
:100C9000816921F004018161206881692A69114319
:100CA00011E0206800F0BCFA2068816941F400611D
:100CB00081612068816921F4806181612068816996
:100CC0002A6941EA0221816124E0206800F0E4FA07
:100CD0002068C16941F00801C1612068C16921F043
:100CE0000401C1612068C1692A69114311E02068CB
:100CF00000F00EFB2068C16941F40061C161206809
:100D0000C16921F48061C1612068C1692A6941EA31
:100D10000221C16184F83D60002084F83C0070BD70
:100D200010B5040003D094F83D0010B107E0012095
:100D300010BD002084F83C00204600F00DF8022091
:100D400084F83D00211D206800F0ACF9012084F8F2
:100D50003D00002010BD000038B50546006813496D
:100D6000884221D11248C16941F00401C161C069C2
:100D7000114C00F0040000900E48206010206060CC
:100D80000020A0608020E060800020618000606121
:100D90002020A061C001E0612046FFF7CBFA08B136
:100DA000FFF71CFA6C62656238BD00000008004065
:100DB0000010024008000240780100207047000047
:100DC00070B5044690F83D0016460D46022805D041
:100DD00094F83D00012805D10EB903B170BD022081
:100DE00084F83D003148324935B1042D13D0082D27
:100DF0003DD00C2D1ED149E0626A9062606A0163A9
:100E0000226831463432606AFFF7C2FA2068C1684E
:100E100041F400710DE0A26A9062A06A0163226849
:100E200031463832A06AFFF7B3FA2068C16841F44E
:100E30008061C16001222946206800F07FF91D49C8
:100E40002068884208D01C49884205D01B49884246
:100E500002D01B49884203D1416C41F400414164F6
:100E60002068016841F001010160002070BDE26A64
:100E70009062E06A0163226831463C32E06AFFF723
:100E800087FA2068C16841F40061D2E7226B906262
:100E9000206B0163226831464032206BFFF778FAFD
:100EA0002068C16841F48051C3E700005311000875
:100EB00091110008002C0140004001400044014015
:100EC00000480140FEE70000094808B5416941F0CB
:100ED000010141614069002200F0010000901146CB
:100EE0000B20FFF7D5FBBDE808400B20FFF7C4BB84
:100EF0000010024070B586B000241C480094019494
:100F000002940394816941F010018161816901F0CB
:100F100010010491816941F020018161816901F032
:100F200020010491816941F004018161816901F02E
:100F300004010491816941F00801816180690C4ECE
:100F400000F008004FF44075049000222946304616
:100F5000FFF734FB01200095CDE901040220039046
:100F600069463046FFF74CFA06B070BD00100240EB
:100F70000010014010B58AB0002407941C21684677
:100F80000894FFF7F0F816481449C0E900141D2131
:100F9000C0E9024104618461FFF7C2FE08B1FFF7B6
:100FA0001DF9079407A90E480894FFF701FE08B140
:100FB000FFF714F97020CDE900040220029000220E
:100FC000694604940648FFF743FE08B1FFF706F9A7
:100FD0000348FFF717FE0AB010BD000000080040EC
:100FE00038010020FEE770470907090E002806DADD
:100FF00000F00F0000F1E02080F8141D704700F1B0
:10100000E02080F80014704770477047FFF7E2BA9D
:1010100030B58FB028216846FFF7A5F814210AA83B
:10102000FFF7A1F8022501200490009510200590FB
:1010300000240004CDE9084007956846FFF722FC2C
:101040000F200A90CDE90B540D9400210AA80E94AC
:10105000FFF750FB0FB030BD0E48016841F00101B1
:10106000016041680C4A1140416001680B4A11401F
:101070000160016821F480210160416821F4FE01D2
:1010800041604FF41F0181600021C1620449C00327
:1010900008607047001002400000FFF8FFFFF6FEF6
:1010A00008ED00E0F0B502681E4B1F4C1F4D4FF0DD
:1010B000804E984205D0704503D0A04201D0A8428E
:1010C00003D122F070064A683243194E194FDFF8F7
:1010D00068C098420BD0704509D0A04207D0A84202
:1010E00005D0B04203D0B84201D0604503D122F40C
:1010F0004074CA68224322F080044A692243026095
:101100008A68C2620A688262984205D0B04203D0FF
:10111000B84201D0604501D10969016301214161F3
:10112000F0BD0000002C0140000400400008004019
:1011300000400140004401400048014010B5012337
:10114000046A8B409C430462036A8A40134303622F
:1011500010BD10B5446A012184F83D10626A8242D4
:1011600001D121770EE0A16A814201D1022008E07D
:10117000E16A814201D1042003E0216B814201D167
:10118000082020772046FFF719FE0020207710BDA9
:1011900010B5406A012180F83D10FFF731FD10BD08
:1011A000F0B5026A22F001020262036A42688469B1
:1011B000184E24F073050C68174F2C4323F00205DA
:1011C0008B68DFF858C02B43114DA84205D0B042C0
:1011D00003D0B84201D0604506D123F0080ECB6899
:1011E00043EA0E0323F00403A84205D0B04203D023
:1011F000B84201D0604505D14D6922F440721543D3
:101200008A692A4342608461496841630362F0BD90
:10121000002C0140004001400044014000480140D2
:1012200030B5026A22F010020262026A43688469E1
:101230000D6824F4E64444EA05248D6822F0200277
:1012400042EA0512104DA84207D1CD6822F0800273
:1012500042EA051222F0400208E00C4DA84205D0F7
:101260000B4DA84202D00B4DA84207D14D6923F483
:10127000406343EA85038D6943EA850343608461E3
:1012800049688163026230BD002C0140004001408A
:10129000004401400048014030B5026A22F48072E7
:1012A0000262036A4268C46923F4007324F0730580
:1012B0000C682C438D6843EA0523114DA84207D1E1
:1012C000CD6823F4006343EA052323F4806308E038
:1012D0000C4DA84205D00C4DA84202D00B4DA8429F
:1012E00007D14D6922F4405242EA05128D6942EA63
:1012F00005124260C4614968C163036230BD0000E9
:10130000002C0140004001400044014000480140E1
:1013100030B5026A22F480520262046A4268C369EC
:101320000D6823F4E64343EA05238D6824F4005452
:1013300044EA05340B4DA84208D00B4DA84205D015
:101340000A4DA84202D00A4DA84204D14D6922F4A8
:10135000804242EA85124260C361496801640462C6
:1013600030BD0000002C014000400140004401401D
:1013700000480140FEE702E008C8121F08C1002A29
:10138000FAD170477047002001E001C1121F002A06
:10139000FBD17047FFF726F9FFF73AFEFFF7AAFDEA
:1013A000FFF792FDFFF7E6FD00F002F8FEE7000010
:1013B00010B532211F48FEF7D6FE1E4909201D4AEE
:1013C000C1F8C800C1F8CC001521C2F8D0101146F0
:1013D0004A23C1F8D400C1F8D800C1F8DC00C1F834
:1013E000E000C1F8E400C1F8E800C1F8EC00C1F881
:1013F000F000C1F8F400C1F8F800C1F8FC00C1F831
:101400000001C1F80401C1F80801C1F80C01C1F8DC
:101410001001C1F81401C1F81801C1F81C01C1F88C
:101420002001C1F82401BDE8104000210248FFF767
:10143000C7BC0000100000203801002000000000A0
:101440000000000001020304060708096C140008EC
:101450000000002010000000761300087C14000833
:1014600010000020B00500008613000801000000F5
:0C147000100000000000000000366E01BB
:0400000508000121CD
:00000001FF
